:020000040800F2
:1000000000500020F9020008270600082906000811
:100010002B0600082D0600082F060008000000002F
:100020000000000000000000000000003106000891
:1000300033060008000000003506000837060008F7
:100040003D0300083D0300083D0300083D03000890
:100050003D0300083D0300083D0300083D03000880
:100060003D0300083D0300083D0300083D03000870
:100070003D0300083D0300083D0300083D03000860
:100080003D0300083D0300083D0300083D03000850
:100090003D0300083D0300083D0300083D03000840
:1000A0003D0300083D0300083D0300083D03000830
:1000B0003D0300083D0300083D0300083D03000820
:1000C0003D0300083D0300083D0300083D03000810
:1000D0003D030008110800083D0300083D03000827
:1000E0003D0300083D0300083D0300080000000038
:1000F0000000000000000000000000000000000000
:0C01000000000000000000005FF808F1A3
:10010C0070B5860747D0541E002A3ED00346CAB2AB
:10011C0001E0013C39D303F8012B9D07F9D1032CE5
:10012C002CD9CDB205EB05250F2C1A4605EB054550
:10013C0034D9A4F1100C2CF00F0603F1100EB644B8
:10014C004FEA1C1CC2E90055C2E902551032724537
:10015C00F8D10CF1010214F00C0F03EB021204F0B5
:10016C000F0C13D0ACF1040323F00303043313443A
:10017C0042F8045B9342FBD10CF003042CB1C9B2DE
:10018C001C4403F8011BA342FBD170BD644613460B
:10019C00002CF4D1F9E703461446C0E7A446E1E786
:1001AC0020F0030110F00300C0F1000051F8043BF3
:1001BC0000F1040C4FEACC0C6FF000021CBF22FAC9
:1001CC000CF213434FF0010C4CEA0C2C4CEA0C4C87
:1001DC00A3EB0C0222EA030212EACC1204BF51F880
:1001EC00043B0430F4D0C2F1000102EA0102B2FA7D
:1001FC0082F2C2F11F0200EBD2007047374B82B083
:10020C001A6842F001021A605968354A0A405A606D
:10021C001A6822F0847222F480321A601A6822F46E
:10022C0080221A605A6822F4FE025A604FF41F02B0
:10023C009A600022009201921A6842F480321A608D
:10024C001A6802F400320192009A01320092019A6B
:10025C001AB9009AB2F5A06FF2D11A6812F40032F2
:10026C0018BF01220192019A012A30D11D4A11684E
:10027C0041F010011160116821F003011160116847
:10028C0041F0020111605A685A605A685A605A6803
:10029C0042F480625A605A6822F47C125A605A689E
:1002AC0042F4E8125A601A6842F080721A601A68B6
:1002BC009201FCD55A6822F003025A605A6842F047
:1002CC0002025A605A6802F00C02082AFAD14FF066
:1002DC000062054B9A6002B0704700BF00100240EC
:1002EC000000FFF80020024000ED00E0002103E0D8
:1002FC000A4B5B584350043109480A4B42189A4246
:10030C00F6D3094A02E0002342F8043B074B9A4219
:10031C00F9D3FFF773FF00F065FC70472B0F000853
:10032C000000002004000020040000201801002020
:10033C00FEE70000034B40F0BF6040F40030D86093
:10034C00704700BF00ED00E070B50125017801F0A9
:10035C001F039D40C3784C09BBB10E4B4678DA683D
:10036C00D243C2F30222C2F104039E4083780F20D1
:10037C0020FA02F213403343074A1B01DBB211444B
:10038C0081F8003342F8245070BD034B203443F8FD
:10039C002450F9E700ED00E000E100E04FF0E0232D
:1003AC001A6904280CBF42F0040222F004021A61FC
:1003BC007047F0B5CB780E88DA0648BF8A7803F020
:1003CC000F0548BF15430A78C2B1002101274FF031
:1003DC000F0C026807FA01F434EA060E0AD1282B36
:1003EC0029D144618C000CFA04FE22EA0E0205FAB3
:1003FC0004F4224301310829ECD10260FF2E19D9F3
:10040C0000214FF0010C426801F108040CFA04F4CD
:10041C0034EA06070AD1282B11D144610F278C002E
:10042C00A74022EA070205FA04F422430131082905
:10043C00EAD14260F0BD482BD4D10461D2E7482BFD
:10044C0008BF0461EAE70161704741617047000031
:10045C001A4A10B5536803F00C03082B2CD15368BF
:10046C005168C3F38343CC0303F102031FD4144933
:10047C004B4303605168134CC1F30311615CCB40D7
:10048C0043605168C1F30221615C23FA01F1816080
:10049C005168C1F3C221615CCB40C36052680A4908
:1004AC00C2F381328A5CB3FBF2F3036110BD516875
:1004BC008903DCD40549DBE7044BDAE70010024082
:1004CC0000093D00540C0008500C000800127A0082
:1004DC00044B9A6911B102439A61704722EA0002F7
:1004EC00FAE700BF0010024030B50446038ACA8800
:1004FC009BB223F440531343038283898A8823F4E9
:10050C00B05323F00C031B041B0C13430A8987B054
:10051C0013434A890D4613439BB28381838A8A898C
:10052C009BB223F440731343838201A8FFF790FF1F
:10053C00DDE9033214498C4208BF13461922A18904
:10054C0053432A680D044CBF520092006421B3FB44
:10055C00F2F3B3FBF1F001FB10330201A0890004AC
:10056C004BBFDB001B01323332334BBFB3FBF1F318
:10057C00B3FBF1F303F0070303F00F0313439BB238
:10058C00238107B030BD00BF00380140838921B101
:10059C009BB243F400538381704723F400531B0434
:1005AC001B0CF8E7012310B5C1F34214012C01F028
:1005BC001F0103FA01F305D10C3042B10268134359
:1005CC00036010BD022C0CBF10301430F5E702682C
:1005DC0022EA0303F4E78088C0F30800704703465F
:1005EC000120C1F3421210B5012A01F01F0400FAD8
:1005FC0004F00DD19A8992B210401A8892B230B19F
:10060C000123090A8B401A4214BF0120002010BD9F
:10061C00022A0CBF1A8A9A8AEDE77047FEE7FEE7BA
:10062C00FEE7FEE7704770477047704708B56FF0FC
:10063C000400FFF7B3FE084B084A1B68B3FBF2F348
:10064C00074ADBB21370C3EB431203EB8203054A78
:10065C00DB00138008BD00BF0000002000127A00F0
:10066C0006000020040000200B4B00221B8858437E
:10067C004FF0E02358619A611A6942F001021A6145
:10068C001A6902F00112012AFAD01A6922F0010249
:10069C001A6100229A6170470400002013B5094CBE
:1006AC0001211020FFF714FF074B204601A90193ED
:1006BC00FFF77FFE4FF400512046FFF7C4FE02B057
:1006CC0010BD00BF00100140002003104FF400517A
:1006DC0010B10348FFF7B9BE0148FFF7B4BE00BF25
:1006EC0000100140034610B505491C4613F8012BB8
:1006FC000AB9201A10BD0C886406FCD58A80F4E770
:10070C0000380140F7B5054600260E4F34463846F2
:10071C0022460DF10701013600F042FA08B90446F1
:10072C000AE09DF807300D2B09D1324629460548C1
:10073C0000F020FA00232B55204603B0F0BD0A2B05
:10074C00E4D1F2E7080000200FB400B593B014AB6D
:10075C0053F8042B402102A8019300F0B9F902A828
:10076C00FFF7C0FF13B05DF804EB04B07047000056
:10077C0030B5012187B004461C4D44F20400FFF74C
:10078C00A7FE1B4B694628460093FFF712FE4FF459
:10079C008063ADF800300423694628468DF8033099
:1007AC00FFF707FE134B01A80193FFF7CDFD0023C4
:1007BC004FF440220294104C02A92046CDE903329A
:1007CC00ADF81430FFF790FE0122204640F225517F
:1007DC00FFF7E8FE20460121FFF7D8FE4FF48072A8
:1007EC000649074800F09BF907B030BD00080140EE
:1007FC0000020318250303010038014018000020F3
:10080C000800002008B540F225510748FFF7E7FE25
:10081C0040B10548FFF7DFFEBDE80840C1B2034810
:10082C0000F084B908BD00BF00380140080000206A
:10083C002DE9F041069F0D46064611464BB3AB42DF
:10084C002ADB4FF000085C1B24EAE474224638468D
:10085C00FFF756FC30463A19531E7419211A002919
:10086C001EDC002DA8BF5219D01BB8F1000F0ED002
:10087C00BA420CD911462A2301F8013D8F4206D207
:10088C00114601F8023D8F4238BF02F8033CBDE827
:10089C00F08198462B46D6E71D464FF00108D2E76B
:1008AC0010F8011B03F8011FD8E7F0B50446084601
:1008BC0042B1002117688142536804DB0021197092
:1008CC005068C01BF0BD95686E1E15683544AB4270
:1008DC00F4D05D1C5560655C01311D70EBE7F0B523
:1008EC000028059C2CDA5BBB0126404212F0010F5C
:1008FC0014BF4FF0410C4FF0610C2546ACF10A0CC3
:10090C000746B0FBF1F001FB1073DAB2092B2B4652
:10091C0094BF30326244D2B28F4203F8012B11D211
:10092C0016B12D221A70AB1C0022181B1A7000EB8A
:10093C00D072611E52100444E51A954204DBF0BDDE
:10094C000026D3E71D46DBE711F8015F13F8016DB4
:10095C000E701D70F0E700002DE9F04F884614462C
:10096C001D46064693B008B98046584E00230393A3
:10097C00274617F8013B8DF817301BB9039813B0B5
:10098C00BDE8F08F252B0BD0424601210DF117004D
:10099C00B047A9463C46039B4D4603440393E7E707
:1009AC00002263781746302B0CBF4FF0300B4FF002
:1009BC00200B8DF817300234A3F13001C8B209288E
:1009CC0022D90AB18DF81730182FBA46A8BF4FF0AC
:1009DC00180A6C2B02BF14F8013B01218DF817305B
:1009EC009DF8173018BF0021642B2ED013D8582B2C
:1009FC004DD0632B5DD0002BC0D0424601210DF1B0
:100A0C001700B047A946C6E70A23012203FB0717C4
:100A1C0014F8013BD0E7752B17D0782B37D0732BFC
:100A2C00EBD1A94659F8045B2846FFF7B9FB002F18
:100A3C00014621DD06AF5A46534628460097FFF77C
:100A4C00F7FE42460146384618E00CAF05F10409A2
:100A5C000097A9B1A3F175025342534100220A2118
:100A6C002868FFF73CFF53465A46014606AD0095F1
:100A7C003846FFF7DDFE014642462846B0478AE776
:100A8C00752B01D10123E9E70B460A46E7E7583BF2
:100A9C000CAF5A4200975A41102101232868FFF7E6
:100AAC001EFF05F1040906AD014653465A46009552
:100ABC00DEE7A94659F8043B06AD8DF817305A46C7
:100ACC005346012100950DF11700D2E7B708000835
:100ADC001FB50446CDE90100039151B158B9214627
:100AEC000648FFF739FF14B1DDE90130C01A04B034
:100AFC0010BD0C46F3E701A9F2E700BFB7080008E8
:100B0C004268D0E902135B1A9A430CBF0120002003
:100B1C007047D0E9022340689B1A184070470023A5
:100B2C00013AC0E9023301604260704738B50446AF
:100B3C000D46FFF7E5FF20B1A3686268013313404F
:100B4C00A360E3682268D554E368626801331340FC
:100B5C00E36038BDD0E902329A4209D00268D35C16
:100B6C000B70836842680133134083600120704727
:100B7C0000207047F8B51746D0E902329A42054674
:100B8C000E464FF0000407D0BC4206EB040103D024
:100B9C002846FFF7DFFF08B92046F8BD0134F3E71C
:100BAC0038B514460546FFF7B4FFA04208D901201A
:100BBC00AB681C446B681C402B681B5D0B7038BD0C
:100BCC000020FCE708B5FFF731FDFFF767FD4FF498
:100BDC00A060FFF7AFFBBDE808404FF4E130FFF732
:100BEC00C7BD0000F0B5002491B04022002168463A
:100BFC00FFF786FAFFF7E6FF1048FFF7A5FD25463D
:100C0C0064260F4F6846FFF77DFD10F0FF0204D0FD
:100C1C0069463846FFF798FDF4E70134A4B2B4FBFB
:100C2C00F6F306FB13439BB223B985F00105284666
:100C3C00FFF74CFD0A20FFF717FDE3E7640C0008F3
:100C4C007B0C0008020406080000000001020304EB
:100C5C00010203040607080968656C6C6F206D7946
:100C6C00206D696E69207072696E74660D0A00677A
:100C7C00657420646174612069733A202573286C53
:080C8C00656E3D2564290A0094
:040F2B0000A24A04D2
:04000005080002F9F4
:00000001FF
